:1000000013C01AC019C018C017C016C015C014C03C
:1000100013C012C011C010C00FC00EC00DC03F06EB
:100020005B4F666D7D077F6F11241FBECFE5D1E06A
:10003000DEBFCDBF97D1A9C3E3CFF894C09AC29ACF
:100040008DE08A95F1F70000C0988DE08A95F1F770
:100050000000C29878940895F894C298C0988DE0F2
:100060008A95F1F70000C29A8DE08A95F1F70000B9
:10007000C09A78940895F8942DE02A95F1F700003D
:1000800098E00DC0C09886952DE02A95F1F7000004
:10009000C29A2DE02A95F1F70000915049F0C298DC
:1000A0002DE02A95F1F7000080FFECCFC09AEBCF4E
:1000B000B898C298C09A8DE08A95F1F7000086B38F
:1000C000C29A9DE09A95F1F70000C2982DE02A951A
:1000D000F1F70000B89A7894809581700895CF93D5
:1000E000C82FABDF8C2FC7DFB7DFCF91089597B351
:1000F000A1E0B0E0FD0102C0EE0FFF1F8A95E2F71C
:1001000002C0AA0FBB1F6A95E2F7EA2B9E2B97BB92
:1001100088B3E095E823E8BB842F8068822BDFDF7B
:100120000895CF93DF93C82FD62F80E4D8DF85DFE3
:100130008D2F806CA0DF8C2F9EDF8EDFDF91CF9123
:10014000089562E080E4EDDF61E080E4EADF60E0F2
:1001500080E4E7DF0895BF92CF92DF92EF92FF92A3
:100160000F931F93CF93DF938C01EC01083E83E044
:10017000180714F0C7EED3E0112354F00F2EF3E06C
:10018000DF2EF02D0F2EFAE0EF2EF12CF02D17C000
:10019000D195C195D10960E080E4C3DFEFCFDA9457
:1001A000CE01B701DFD2B62EC72E825E9F4FFC0173
:1001B00084916D2DB6DFCB2DDC2DDD2029F01123B0
:1001C00074F7E1E0DE12EBCFDF91CF911F910F9139
:1001D000FF90EF90DF90CF90BF900895992384F027
:1001E00021E08A30910554F021E0EAE0F0E0BF011F
:1001F000B9D2CB012F5F6A307105CCF7822F0895F9
:10020000919581959109ECCF9F92AF92BF92CF9239
:10021000DF92EF92FF920F931F93CF93DF9300D063
:100220001F92CDB7DEB7D62EA42EC92ECC1CCC245F
:10023000CC1CC22AE82EF92E88EEE81683E0F806D8
:1002400034F00F2EF7EEEF2EF3E0FF2EF02DCC2042
:1002500009F480C0F194E194F108C701BFDFB82E22
:1002600082E011E0B81210E02AE030E0C701B901E5
:1002700079D28B83CB01B90175D28A83C70164E639
:1002800070E070D2CB01B9016DD2898381E0B816DC
:1002900079F003E00B19033008F046C082E090E0EB
:1002A0007C01EA18F1086894AA24A7F8912C18C0D8
:1002B0000B2DF4CF1E151F04F1F0E1E0F0E0EC0F80
:1002C000FD1FE00FF11DE081F0E0E25EFF4F849141
:1002D000612F27DF81E0800F1F5F0F5F833020F5E4
:1002E000CC2041F31111E6CF692D80E41ADF81E0C3
:1002F000800F11E0F2CF83E0B816F9F2E1E0F0E010
:10030000EC0FFD1FE00FF11DE081F0E0E25EFF4F1A
:10031000E49182E0B81619F08A2D8E2BD9CF892D61
:10032000C110FBCF8A2DF9CFED2DF0E0E25EFF4F3B
:100330008491612FF6DE0F900F900F90DF91CF9197
:100340001F910F91FF90EF90DF90CF90BF90AF90F3
:100350009F900895C70142DFB82E82E0B81283CF84
:1003600010E082CFCF93DF93CDB7DEB766970FB69D
:10037000F894DEBF0FBECDBFBB9AC3986BE0CE0131
:100380000196F2D028E042E062E080E0B0DED9DE03
:1003900004E610E00CC0C39A90E0DDDE2FEF80E7AA
:1003A00092E0215080409040E1F700C00000CE0173
:1003B000019615D18111EFCFC398CE01019629D1B5
:1003C0008B899C89B801BAD12D8941E089899A89A4
:1003D0001BDFEDCFF894BC9A8FEB93E00197F1F718
:1003E00000C00000BC989AEB9A95F1F700C086B364
:1003F000E3E3F3E03197F1F700C0000078948295D1
:10040000817091E08927089598E00DC0BC9A20EA98
:100410002A95F1F7BC982AE12A95F1F700C0789463
:100420008695915069F0F89480FFF0CFBC9A20E156
:100430002A95F1F7BC982AEA2A95F1F700C0EFCF88
:10044000089598E080E007C022E92A95F1F700C0FE
:100450007894915071F0F8948695BC9A20E12A9591
:10046000F1F7BC9828E12A95F1F7B49BEDCF8068AD
:10047000EBCF0895AFDF811101C008958CECC4DF8C
:1004800081E0FBCF0F931F93CF93DF938C01A2DF0B
:10049000811105C0DF91CF911F910F91089583E3E2
:1004A000B3DFE801085F1F4FCCDF8993C017D10786
:1004B000D9F781E0EFCFFC01680F791F80E02CE8CD
:1004C0000BC08695915029F080FFFBCF869582273F
:1004D000F9CFE617F70721F09191892798E0F4CF3B
:1004E0000895EF92FF920F931F93CF93DF937C01B8
:1004F000C1DF8EEB89DFE7018701085F1F4FA1DFB6
:100500008993C017D107D9F768E070E0C701D3DF3E
:10051000C82F97DF91E0C81390E0892FDF91CF912A
:100520001F910F91FF90EF90089554DF811101C04A
:100530000895A0DF88E468DF8FE19EE40197F1F77A
:1005400000C0000081E0F4CFCF93DF93EC0192DF95
:100550008EE45ADF888158DF898156DF8A8154DF33
:10056000E4DFDF91CF910895FF920F931F93CF9314
:10057000DF9300D01F92CDB7DEB78C01F62EB1DF2E
:10058000F8018281898383818A83FAE0FF16B9F0BA
:100590008BE0F81689F0E9E0FE16A1F08FE78B8377
:1005A000CE010196D1DF0F900F900F90DF91CF9188
:1005B0001F910F91FF9008958FE58B83F1CF8FE30B
:1005C0008B83EECF8FE18B83EBCF04DF811101C0F2
:1005D00008958CEC19DF84E417DF81E0F9CFCF9325
:1005E000DF93EC01F7DE811104C081E0DF91CF9150
:1005F0000895CE01089646DF8885883211F082E0A2
:10060000F5CFCE016EDF882311F080E0EFCF83E0DD
:10061000EDCFCF93DF93EC01D8DF882309F45EC0E0
:100620002C81822F90E08095909580769927892B58
:1006300009F057C02FE73FE482E12150304080406D
:10064000E1F700C00000CE014CDF882309F46BC045
:100650001D8A898190E04881242F382F33230CF4A0
:1006600065C0359527953595279535952795359509
:100670002795398B288B80959095887F9927892B92
:1006800009F057C081E08C8B4195488388818F7039
:10069000282F30E0C901880F991F82959295907F8D
:1006A0009827807F9827821B930B880F991F880FAC
:1006B000991F820F931F880F991F880F991F880F0A
:1006C000991F9C019923BCF1359527953595279560
:1006D00035952795359527953B8B2A8BDF91CF91C3
:1006E000089526FF0AC09FEB27E239E09150204091
:1006F0003040E1F700C00000A6CF25FF0AC08FEF11
:1007000096E924E0815090402040E1F700C00000CD
:100710009ACF3FE78BE492E0315080409040E1F780
:1007200000C0000090CF81E08D8BD8CF215F3F4F7C
:1007300098CF1C8AABCF215F3F4FC6CFAA1BBB1BF4
:1007400051E107C0AA1FBB1FA617B70710F0A61BD1
:10075000B70B881F991F5A95A9F780959095BC01F2
:10076000CD01089597FB072E16F4009406D077FD6F
:1007700008D0E4DF07FC05D03EF4909581959F4FAB
:0E0780000895709561957F4F0895F894FFCF0E
:00000001FF
