:1000000013C01AC019C018C017C016C015C014C03C
:1000100013C012C011C010C00FC00EC00DC03F06EB
:100020005B4F666D7D077F6F11241FBECFE5D1E06A
:10003000DEBFCDBF30D19CC2E3CFF894C09AC29A44
:100040008DE08A95F1F70000C0988DE08A95F1F770
:100050000000C29878940895F894C298C0988DE0F2
:100060008A95F1F70000C29A8DE08A95F1F70000B9
:10007000C09A78940895F8942DE02A95F1F700003D
:1000800098E00DC0C09886952DE02A95F1F7000004
:10009000C29A2DE02A95F1F70000915049F0C298DC
:1000A0002DE02A95F1F7000080FFECCFC09AEBCF4E
:1000B000B898C298C09A8DE08A95F1F7000086B38F
:1000C000C29A9DE09A95F1F70000C2982DE02A951A
:1000D000F1F70000B89A7894809581700895CF93D5
:1000E000C82FABDF8C2FC7DFB7DFCF91089597B351
:1000F000A1E0B0E0FD0102C0EE0FFF1F8A95E2F71C
:1001000002C0AA0FBB1F6A95E2F7EA2B9E2B97BB92
:1001100088B3E095E823E8BB842F8068822BDFDF7B
:100120000895CF93DF93C82FD62F80E4D8DF85DFE3
:100130008D2F806CA0DF8C2F9EDF8EDFDF91CF9123
:10014000089562E080E4EDDF61E080E4EADF60E0F2
:1001500080E4E7DF089521E08A30910550F021E046
:10016000EAE0F0E0BF01DDD1CB012F5F6A3071051D
:10017000C8F7822F0895AF92BF92CF92DF92EF928D
:10018000FF920F931F93CF93DF9300D01F92CDB7B1
:10019000DEB7B62EF42E009749F461113BC08C01F6
:1001A000883E93407CF007EE13E00CC08C01883E43
:1001B00023E0920714F007EE13E099231CF4119545
:1001C00001951109C801C7DFA82E2AE030E0C80157
:1001D000B901BBD18B83CB01B901B7D18A83C801E7
:1001E00064E670E0B2D1CB01B901AFD1898331E0CF
:1001F000A31691F083E0D82EDA1882E08D15A8F1CD
:1002000010E000E0C12C82E090E09C012F19310940
:10021000790118C08C01D3CFDA2CF2CFE1E0F0E005
:10022000EC0FFD1FED0DF11DE081F0E0E25EFF4FF0
:1002300084916C2D76DFD394C3940F5F1F4F82E0BF
:100240008D15A0F0E016F10649F733E0A31631F35F
:10025000E1E0F0E0EC0FFD1FED0DF11DE081F0E0BD
:10026000E25EFF4F84918068E4CFC12CEB2DF0E07B
:10027000E25EFF4F84916C2D54DF0F900F900F9032
:10028000DF91CF911F910F91FF90EF90DF90CF9072
:10029000BF90AF900895CF93DF93CDB7DEB764974B
:1002A0000FB6F894DEBF0FBECDBF28E042E062E09B
:1002B00080E01DDF46DF04E610E001C042DFCE0132
:1002C0000196C3D08111FACFCE010196D1D08B898E
:1002D0009C89B80126D141E089899A894CDFEFCF0A
:1002E000F894BC9A8FEB93E00197F1F700C00000FF
:1002F000BC989AEB9A95F1F700C086B3E3E3F3E07C
:100300003197F1F700C0000078948295817091E0F8
:100310008927089598E00DC0BC9A20EA2A95F1F744
:10032000BC982AE12A95F1F700C0789486959150FF
:1003300069F0F89480FFF0CFBC9A20E12A95F1F79C
:10034000BC982AEA2A95F1F700C0EFCF089598E00B
:1003500080E007C022E92A95F1F700C07894915017
:1003600071F0F8948695BC9A20E12A95F1F7BC9833
:1003700028E12A95F1F7B49BEDCF8068EBCF089583
:10038000AFDF811101C008958CECC4DF81E0FBCFA9
:100390000F931F93CF93DF938C01A2DF811105C0D0
:1003A000DF91CF911F910F91089583E3B3DFE801AF
:1003B000085F1F4FCCDF8993C017D107D9F781E0C1
:1003C000EFCFFC01680F791F80E02CE80BC0869509
:1003D000915029F080FFFBCF86958227F9CFE61751
:1003E000F70721F09191892798E0F4CF0895EF92D3
:1003F000FF920F931F93CF93DF937C01C1DF8EEBAE
:1004000089DFE7018701085F1F4FA1DF8993C017CC
:10041000D107D9F768E070E0C701D3DFC82F97DFB5
:1004200091E0C81390E0892FDF91CF911F910F9138
:10043000FF90EF90089554DF811101C008958CEC76
:1004400069DF84E467DF81E0F9CFCF93DF93EC01CC
:1004500047DF811104C081E0DF91CF910895CE0183
:10046000089696DF81E098859832B1F780E0F4CF66
:10047000CF93DF93EC01DFDF811103C0DF91CF91D8
:1004800008952FE78FE492E1215080409040E1F7FA
:1004900000C00000CE01ABDF882381F329813881C1
:1004A000522F432FCA019923BCF1959587959595B5
:1004B00087959595879595958795998B888B287FB6
:1004C00011F03195388388818F70282F30E0C90171
:1004D000880F991F82959295907F9827807F982703
:1004E000821B930B880F991F880F991F820F931FF0
:1004F000880F991F880F991F880F991F9C019923B6
:100500006CF0359527953595279535952795359533
:1005100027953B8B2A8BB2CF0F96C7CF215F3F4FDA
:10052000F0CFAA1BBB1B51E107C0AA1FBB1FA61718
:10053000B70710F0A61BB70B881F991F5A95A9F78C
:1005400080959095BC01CD01089597FB072E16F478
:10055000009406D077FD08D0E4DF07FC05D03EF418
:10056000909581959F4F0895709561957F4F08955F
:04057000F894FFCF2D
:00000001FF
