:1000000013C01AC019C018C017C016C015C014C03C
:1000100013C012C011C010C00FC00EC00DC03F06EB
:100020005B4F666D7D077F6F11241FBECFE5D1E06A
:10003000DEBFCDBFB8D0DEC1E3CFC09AC29A8DE09B
:100040008A95F1F70000C0988DE08A95F1F70000DD
:10005000C2980895C298C0988DE08A95F1F7000083
:10006000C29A8DE08A95F1F70000C09A08952DE0BC
:100070002A95F1F7000098E00DC0C09886952DE014
:100080002A95F1F70000C29A2DE02A95F1F70000B9
:10009000915049F0C2982DE02A95F1F7000080FFB9
:1000A000ECCFC09AEBCFB898C298C09A8DE08A95F1
:1000B000F1F7000086B3C29A9DE09A95F1F700002F
:1000C000C2982DE02A95F1F70000B89A80958170CA
:1000D0000895CF93C82FB1DF8C2FC9DFBBDFCF913D
:1000E000089597B3A1E0B0E0FD0102C0EE0FFF1F3D
:1000F0008A95E2F702C0AA0FBB1F6A95E2F7EA2BC6
:100100009E2B97BB88B3E095E823E8BB842F8068DB
:10011000822BDFDF0895CF93DF93C82FD62F80E4A3
:10012000D8DF8BDF8D2F806CA2DF8C2FA0DF92DFDA
:10013000DF91CF9108950F931F93CF93DF93EC013D
:10014000C83E83E0D80710F0C7EED3E0CE0164E6E6
:1001500070E03CD1CB010AE010E0B80137D1825EFB
:100160009F4FFC01849160E0D6DFCE01B8012ED113
:10017000EC01CB01B8012AD1825E9F4FFC01849132
:1001800061E0C9DFFE01E25EFF4F849162E0C3DF00
:10019000DF91CF911F910F91089528E041E062E037
:1001A00080E09FDF0895CF93DF93CDB7DEB76397ED
:1001B0000FB6F894DEBF0FBECDBFEFDFCE010996BC
:1001C0005FD0CE010196B9D089899A89B4DFF9CF81
:1001D000F894BC9A8FEB93E00197F1F700C0000010
:1001E000BC989AEB9A95F1F700C086B3E3E3F3E08D
:1001F0003197F1F700C0000078948295817091E00A
:100200008927089598E00DC0BC9A20EA2A95F1F755
:10021000BC982AE12A95F1F700C078948695915010
:1002200069F0F89480FFF0CFBC9A20E12A95F1F7AD
:10023000BC982AEA2A95F1F700C0EFCF089598E01C
:1002400080E007C022E92A95F1F700C07894915028
:1002500071F0F8948695BC9A20E12A95F1F7BC9844
:1002600028E12A95F1F7B49BEDCF8068EBCF089594
:10027000AFDF811101C008958CECC4DF81E0FBCFBA
:100280000F931F93CF93DF938C01A2DF811105C0E1
:10029000DF91CF911F910F91089583E3B3DFE801C0
:1002A000085F1F4FCCDF8993C017D107D9F781E0D2
:1002B000EFCFFC01680F791F80E02CE80BC086951A
:1002C000915029F080FFFBCF86958227F9CFE61762
:1002D000F70721F09191892798E0F4CF0895EF92E4
:1002E000FF920F931F93CF93DF937C01C1DF8EEBBF
:1002F00089DFE7018701085F1F4FA1DF8993C017DE
:10030000D107D9F768E070E0C701D3DFC82F97DFC6
:1003100091E0C81390E0892FDF91CF911F910F9149
:10032000FF90EF90089554DF811101C008958CEC87
:1003300069DF84E467DF81E0F9CFCF93DF93EC01DD
:10034000F2DF811103C0DF91CF9108952FE78FE491
:1003500092E1215080409040E1F700C00000CE01C2
:10036000BEDF882381F388814981542F482F9A0169
:1003700033234CF135952795359527953595279558
:1003800035952795398B288B8F70282F30E0C90140
:10039000880F991F820F931FAC01440F551F429580
:1003A0005295507F5427407F5427840F951F820F0A
:1003B000931F95958795959587959595879595958F
:1003C00087958A8BC0CF215F3F4FD4CFAA1BBB1B21
:1003D00051E107C0AA1FBB1FA617B70710F0A61B45
:1003E000B70B881F991F5A95A9F780959095BC0166
:0803F000CD010895F894FFCF40
:00000001FF
