:100000000EC01DC01CC01BC01AC019C018C017C02C
:1000100016C015C014C013C012C011C010C01124E6
:100020001FBECFE5D1E0DEBFCDBF20E0A0E6B0E04F
:1000300001C01D92A137B207E1F771D0F5C0E0CF42
:100040000F931F93CF93DF93CED08EEB94D0C8E65F
:10005000D0E001E710E0ADD08993C017D107D9F700
:1000600081E0DF91CF911F910F9108956BD08111A5
:1000700001C008958CEC7FD084E47DD081E0F9CF7D
:100080000F931F93CF93DF938C01EB01EFDF2FE7EB
:100090008FE492E1215080409040E1F700C00000E1
:1000A000CFDFE8E6F0E021818081322F282FC901DF
:1000B00099237CF195958795959587959595879545
:1000C00095958795F8018083809168008F70282F1F
:1000D00030E0C901880F991F820F931FAC01440FB4
:1000E000551F42955295507F5427407F5427840FC7
:1000F000951F820F931F9595879595958795959553
:100100008795959587958883DF91CF911F910F9162
:1001100008950F96CFCF86E087BB18BA0895CF9386
:10012000DF9300D0CDB7DEB7F6DF19821A8280E602
:1001300090E061D0BE016E5F7F4FCE010196A0DFDF
:100140000000F8CFF89491E097BBEFEBF3E0319724
:10015000F1F700C0000017BAFAEBFA95F1F700C00A
:1001600086B3E3E3F3E03197F1F700C00000789441
:1001700089278170089598E021E00DC027BB30EAFF
:100180003A95F1F717BA3AE13A95F1F700C0789449
:100190008695915069F0F89480FFF0CF27BB30E14D
:1001A0003A95F1F717BA3AEA3A95F1F700C0EFCF6E
:1001B000089598E080E021E007C032E93A95F1F730
:1001C00000C07894915071F0F894869527BB30E187
:1001D0003A95F1F717BA38E13A95F1F7B09BEDCFC0
:1001E0008068EBCF0895AEDF811101C008958CECDB
:1001F000C2DF81E0FBCF0F931F93CF93DF938C017E
:10020000A1DF811105C0DF91CF911F910F9108955A
:1002100083E3B1DFE801085F1F4FCBDF8993C0178D
:0C022000D107D9F781E0EFCFF894FFCFB1
:00000001FF
