:1000000013C01AC019C018C017C016C015C014C03C
:1000100013C012C011C010C00FC00EC00DC03F06EB
:100020005B4F666D7D077F6F11241FBECFE5D1E06A
:10003000DEBFCDBFDAD1FAC3E3CFF894C09AC29A3B
:100040008DE08A95F1F70000C0988DE08A95F1F770
:100050000000C29878940895F894C298C0988DE0F2
:100060008A95F1F70000C29A8DE08A95F1F70000B9
:10007000C09A78940895F8942DE02A95F1F700003D
:1000800098E00DC0C09886952DE02A95F1F7000004
:10009000C29A2DE02A95F1F70000915049F0C298DC
:1000A0002DE02A95F1F7000080FFECCFC09AEBCF4E
:1000B000B898C298C09A8DE08A95F1F7000086B38F
:1000C000C29A9DE09A95F1F70000C2982DE02A951A
:1000D000F1F70000B89A7894809581700895CF93D5
:1000E000C82FABDF8C2FC7DFB7DFCF91089597B351
:1000F000A1E0B0E0FD0102C0EE0FFF1F8A95E2F71C
:1001000002C0AA0FBB1F6A95E2F7EA2B9E2B97BB92
:1001100088B3E095E823E8BB842F8068822BDFDF7B
:100120000895CF93DF93C82FD62F80E4D8DF85DFE3
:100130008D2F806CA0DF8C2F9EDF8EDFDF91CF9123
:10014000089562E080E4EDDF61E080E4EADF60E0F2
:1001500080E4E7DF0895BF92CF92DF92EF92FF92A3
:100160000F931F93CF93DF938C01EC01083E83E044
:10017000180714F0C7EED3E0112354F00F2EF3E06C
:10018000DF2EF02D0F2EFAE0EF2EF12CF02D17C000
:10019000D195C195D10960E080E4C3DFEFCFDA9457
:1001A000CE01B70130D3B62EC72E825E9F4FFC0121
:1001B00084916D2DB6DFCB2DDC2DDD2029F01123B0
:1001C00074F7E1E0DE12EBCFDF91CF911F910F9139
:1001D000FF90EF90DF90CF90BF900895992384F027
:1001E00021E08A30910554F021E0EAE0F0E0BF011F
:1001F0000AD3CB012F5F6A307105CCF7822F0895A7
:10020000919581959109ECCF7F928F929F92AF92B9
:10021000BF92CF92DF92EF92FF920F931F93CF93F3
:10022000DF9300D01F92CDB7DEB7F62E942EE22ECC
:1002300099230CF44DC021E0E11001C020E06C01D5
:10024000883E934034F00F2EF7EECF2EF3E0DF2EF2
:10025000F02DE11008C0C601C1DFB82E52E08513B1
:100260004CC010E04BC0E22E3FC00B2D63C0682D88
:1002700080E457DF81E0800F1E2D96C0E3E0BE12C0
:10028000A2C0E11081C0A1107FC065C0882DE1101F
:10029000AAC0892DA8C0872D023009F080C074C083
:1002A000EF2DF0E0E25EFF4F8491612F3ADF0F9077
:1002B0000F900F90DF91CF911F910F91FF90EF90D2
:1002C000DF90CF90BF90AF909F908F907F900895D8
:1002D0006C01883E934034F00F2EF7EECF2EF3E002
:1002E000DF2EF02DEE24E394D194C194D108C60101
:1002F00075DFB82E52E011E0851310E02AE030E0FF
:10030000C601B90180D28B83CB01B9017CD28A832B
:10031000C60164E670E077D2CB01B90174D2A82E91
:10032000898381E0B81609F4A0CF03E00B190330EC
:1003300008F0B6CF82E090E06C01C918D1087E2C9D
:100340006894992497F8812C33C01C151D0409F476
:1003500095CFA11015C0202F30E0E1E0F0E0EC0FC8
:10036000FD1FE20FF31F808181110AC042E050E0BF
:100370004C0F5D1F240F351FF901908191110FC0A3
:10038000F1E0BF1609F487CFE1E0F0E0EC0FFD1FCC
:10039000E00FF11DE081F0E0E25EFF4F8491612FFC
:1003A000C0DE81E0800F1F5F0F5F833008F078CFE1
:1003B000EE2059F2112309F45ACF1C151D0421F720
:1003C00083E0B81609F3E1E0F0E0EC0FFD1FE00F69
:1003D000F11DE081F0E0E25EFF4FE491F2E0892D53
:1003E000BF1609F453CF8E2BDACFCF93DF93CDB75F
:1003F000DEB766970FB6F894DEBF0FBECDBFBB9ACF
:10040000C398A89588E198E20FB6F894A89581BDA5
:100410000FBE91BD6BE0CE010196F7D028E042E01F
:1004200062E080E064DE8DDE2FEF80E792E0215015
:1004300080409040E1F700C0000004E610E00DC0ED
:10044000C39A90E088DE2FE788E391E02150804056
:100450009040E1F700C00000A895CE01019610D1B0
:100460008111EECFC398CE01019624D18B899C894E
:10047000B801B5D12D8941E089899A89C5DEA89551
:10048000ECCFF894BC9A8FEB93E00197F1F700C0A2
:100490000000BC989AEB9A95F1F700C086B3E3E3AD
:1004A000F3E03197F1F700C00000789482958170F5
:1004B00091E08927089598E00DC0BC9A20EA2A951A
:1004C000F1F7BC982AE12A95F1F700C07894869557
:1004D000915069F0F89480FFF0CFBC9A20E12A9502
:1004E000F1F7BC982AEA2A95F1F700C0EFCF0895FA
:1004F00098E080E007C022E92A95F1F700C07894DF
:10050000915071F0F8948695BC9A20E12A95F1F704
:10051000BC9828E12A95F1F7B49BEDCF8068EBCF2A
:100520000895AFDF811101C008958CECC4DF81E034
:10053000FBCF0F931F93CF93DF938C01A2DF811129
:1005400005C0DF91CF911F910F91089583E3B3DF31
:10055000E801085F1F4FCCDF8993C017D107D9F797
:1005600081E0EFCFFC01680F791F80E02CE80BC021
:100570008695915029F080FFFBCF86958227F9CF91
:10058000E617F70721F09191892798E0F4CF0895B5
:10059000EF92FF920F931F93CF93DF937C01C1DF04
:1005A0008EEB89DFE7018701085F1F4FA1DF899389
:1005B000C017D107D9F768E070E0C701D3DFC82FB3
:1005C00097DF91E0C81390E0892FDF91CF911F91C1
:1005D0000F91FF90EF90089554DF811101C00895AD
:1005E000A0DF88E468DF81E0FACFCF93DF93EC01EE
:1005F00098DF8EE460DF88815EDF89815CDF8A813D
:100600005ADFEADFDF91CF910895FF920F931F9396
:10061000CF93DF9300D01F92CDB7DEB78C01F62EBB
:10062000B7DFF8018281898383818A83FAE0FF162C
:10063000B9F08BE0F81689F0E9E0FE16A1F08FE73B
:100640008B83CE010196D1DF0F900F900F90DF9139
:10065000CF911F910F91FF9008958FE58B83F1CF7C
:100660008FE38B83EECF8FE18B83EBCF0ADF81119A
:1006700001C008958CEC1FDF84E41DDF81E0F9CF19
:10068000CF93DF93EC01FDDE811104C081E0DF91A7
:10069000CF910895CE0108964CDF8885883211F0FD
:1006A00082E0F5CFCE0174DF882311F080E0EFCF38
:1006B00083E0EDCFCF93DF93EC01D8DF882309F4FB
:1006C0005EC02C81822F90E080959095807699274E
:1006D000892B09F057C02FE73FE482E121503040D9
:1006E0008040E1F700C00000CE0152DF882309F40A
:1006F0006BC01D8A898190E04881242F382F3323D5
:100700000CF465C035952795359527953595279532
:1007100035952795398B288B80959095887F9927DB
:10072000892B09F057C081E08C8B419548838881E3
:100730008F70282F30E0C901880F991F82959295FC
:10074000907F9827807F9827821B930B880F991F93
:10075000880F991F820F931F880F991F880F991F69
:10076000880F991F9C019923BCF1359527953595E4
:10077000279535952795359527953B8B2A8BDF91C6
:10078000CF91089526FF0AC09FEB27E239E09150F0
:1007900020403040E1F700C00000A6CF25FF0AC08E
:1007A0008FEF96E924E0815090402040E1F700C0AF
:1007B00000009ACF3FE78BE492E0315080409040B8
:1007C000E1F700C0000090CF81E08D8BD8CF215F92
:1007D0003F4F98CF1C8AABCF215F3F4FC6CFAA1B9C
:1007E000BB1B51E107C0AA1FBB1FA617B70710F01C
:1007F000A61BB70B881F991F5A95A9F7809590954E
:10080000BC01CD01089597FB072E16F4009406D085
:1008100077FD08D0E4DF07FC05D03EF49095819584
:100820009F4F0895709561957F4F0895F894FFCF7D
:00000001FF
