:100000000EC015C014C013C012C011C010C00FC064
:100010000EC00DC00CC00BC00AC009C008C011241E
:100020001FBECFE5D1E0DEBFCDBF06D01AC1E8CFFD
:1000300086E087BB18BA0895CF93DF93CDB7DEB7BC
:1000400063970FB6F894DEBF0FBECDBFF1DFCE01D0
:10005000099661D0CE010196BBD00000F8CFF8948C
:10006000BC9A8FEB93E00197F1F700C0000087B3D3
:1000700017BA9AEB9A95F1F700C086B3E3E3F3E081
:100080003197F1F700C0000078948295817091E07B
:100090008927089598E00EC0BC9A20EA2A95F1F7C6
:1000A00027B317BA2AE12A95F1F700C0789486950C
:1000B000915071F0F89480FFEFCFBC9A20E12A951F
:1000C000F1F727B317BA2AEA2A95F1F700C0EECF65
:1000D000089598E080E007C022E92A95F1F700C072
:1000E0007894915079F0F8948695BC9A20E12A95FD
:1000F000F1F727B317BA28E12A95F1F7B49BECCFB3
:100100008068EACF0895ABDF811101C008958CECBF
:10011000C1DF81E0FBCF0F931F93CF93DF938C015F
:100120009EDF811105C0DF91CF911F910F9108953E
:1001300083E3B0DFE801085F1F4FCBDF8993C0176F
:10014000D107D9F781E0EFCFFC01680F791F80E07C
:100150002CE80BC08695915029F080FFFBCF869547
:100160008227F9CFE617F70721F09191892798E0C8
:10017000F4CF0895EF92FF920F931F93CF93DF93E5
:100180007C01C1DF8EEB86DFE7018701085F1F4F2F
:10019000A0DF8993C017D107D9F768E070E0C701E5
:1001A000D3DFC82F96DF91E0C81390E0892FDF914D
:1001B000CF911F910F91FF90EF90089550DF811123
:1001C00001C008958CEC66DF84E464DF81E0F9CF40
:1001D000CF93DF93EC01F2DF811103C0DF91CF9168
:1001E00008952FE78FE492E1215080409040E1F79D
:1001F00000C00000CE01BEDF882381F388814981E1
:10020000542F482F9A0133234CF135952795359576
:1002100027953595279535952795398B288B8F70A0
:10022000282F30E0C901880F991F820F931FAC015E
:10023000440F551F42955295507F5427407F5427B5
:10024000840F951F820F931F959587959595879598
:1002500095958795959587958A8BC0CF215F3F4F60
:06026000D4CFF894FFCF9B
:00000001FF
