:100000000EC015C014C013C012C011C010C00FC064
:100010000EC00DC00CC00BC00AC009C008C011241E
:100020001FBECFE5D1E0DEBFCDBF7FD025C1E8CF79
:10003000EF92FF920F931F93CF93DF937C01D9D060
:100040008EEB9FD0E7018701085F1F4FB8D08993DF
:10005000C017D107D9F768E070E0C701EBD0C82F0F
:10006000AED0C81741F080E0DF91CF911F910F9182
:10007000FF90EF900895000081E0F6CF69D08111E4
:1000800001C008958CEC7DD084E47BD081E0F9CF71
:10009000CF93DF93EC01F2DF811103C0DF91CF91A9
:1000A00008952FE78FE492E1215080409040E1F7DE
:1000B00000C00000CE01BCDF882381F38881498124
:1000C000542F482F9A0133234CF1359527953595B8
:1000D00027953595279535952795398B288B8F70E2
:1000E000282F30E0C901880F991F820F931FAC01A0
:1000F000440F551F42955295507F5427407F5427F7
:10010000840F951F820F931F9595879595958795D9
:1001100095958795959587958A8BC0CF215F3F4FA1
:10012000D4CF86E087BB18BA0895CF93DF93CDB7BD
:10013000DEB763970FB6F894DEBF0FBECDBFF1DF19
:10014000CE0109965ED0CE010196A2DF0000F8CF65
:10015000F89491E097BBEFEBF3E03197F1F700C033
:10016000000017BAFAEBFA95F1F700C086B3E3E3A3
:10017000F3E03197F1F700C000007894892781708F
:10018000089598E021E00DC027BB30EA3A95F1F7D9
:1001900017BA3AE13A95F1F700C0789486959150F4
:1001A00069F0F89480FFF0CF27BB30E13A95F1F782
:1001B00017BA3AEA3A95F1F700C0EFCF089598E000
:1001C00080E021E007C032E93A95F1F700C0789469
:1001D000915071F0F894869527BB30E13A95F1F78C
:1001E00017BA38E13A95F1F7B09BEDCF8068EBCFC5
:1001F0000895AEDF811101C008958CECC2DF81E06B
:10020000FBCF0F931F93CF93DF938C01A1DF81115D
:1002100005C0DF91CF911F910F91089583E3B1DF66
:10022000E801085F1F4FCBDF8993C017D107D9F7CB
:1002300081E0EFCFFC0161157105E1F050E080E055
:1002400030E020E04CE80EC08695915029F080FF08
:10025000FBCF86958427F9CF5F5F252F30E02617E7
:10026000370738F42E0F3F1FD9019C91892798E05A
:0C027000EECF089580E00895F894FFCFD1
:00000001FF
