:1000000013C01AC019C018C017C016C015C014C03C
:1000100013C012C011C010C00FC00EC00DC03F06EB
:100020005B4F666D7D077F6F11241FBECFE5D1E06A
:10003000DEBFCDBFEAD115C4E3CFF894C09AC29A0F
:100040008DE08A95F1F70000C0988DE08A95F1F770
:100050000000C29878940895F894C298C0988DE0F2
:100060008A95F1F70000C29A8DE08A95F1F70000B9
:10007000C09A78940895F8942DE02A95F1F700003D
:1000800098E00DC0C09886952DE02A95F1F7000004
:10009000C29A2DE02A95F1F70000915049F0C298DC
:1000A0002DE02A95F1F7000080FFECCFC09AEBCF4E
:1000B000B898C298C09A8DE08A95F1F7000086B38F
:1000C000C29A9DE09A95F1F70000C2982DE02A951A
:1000D000F1F70000B89A7894809581700895CF93D5
:1000E000C82FABDF8C2FC7DFB7DFCF91089597B351
:1000F000A1E0B0E0FD0102C0EE0FFF1F8A95E2F71C
:1001000002C0AA0FBB1F6A95E2F7EA2B9E2B97BB92
:1001100088B3E095E823E8BB842F8068822BDFDF7B
:100120000895CF93DF93C82FD62F80E4D8DF85DFE3
:100130008D2F806CA0DF8C2F9EDF8EDFDF91CF9123
:10014000089562E080E4EDDF61E080E4EADF60E0F2
:1001500080E4E7DF0895BF92CF92DF92EF92FF92A3
:100160000F931F93CF93DF938C01EC01083E83E044
:10017000180714F0C7EED3E0112354F00F2EF3E06C
:10018000DF2EF02D0F2EFAE0EF2EF12CF02D17C000
:10019000D195C195D10960E080E4C3DFEFCFDA9457
:1001A000CE01B7014BD3B62EC72E825E9F4FFC0106
:1001B00084916D2DB6DFCB2DDC2DDD2029F01123B0
:1001C00074F7E1E0DE12EBCFDF91CF911F910F9139
:1001D000FF90EF90DF90CF90BF900895992384F027
:1001E00021E08A30910554F021E0EAE0F0E0BF011F
:1001F00025D3CB012F5F6A307105CCF7822F08958C
:10020000919581959109ECCF7F928F929F92AF92B9
:10021000BF92CF92DF92EF92FF920F931F93CF93F3
:10022000DF9300D01F92CDB7DEB7F62E942EE22ECC
:1002300099230CF44DC021E0E11001C020E06C01D5
:10024000883E934034F00F2EF7EECF2EF3E0DF2EF2
:10025000F02DE11008C0C601C1DFB82E52E08513B1
:100260004CC010E04BC0E22E3FC00B2D63C0682D88
:1002700080E457DF81E0800F1E2D96C0E3E0BE12C0
:10028000A2C0E11081C0A1107FC065C0882DE1101F
:10029000AAC0892DA8C0872D023009F080C074C083
:1002A000EF2DF0E0E25EFF4F8491612F3ADF0F9077
:1002B0000F900F90DF91CF911F910F91FF90EF90D2
:1002C000DF90CF90BF90AF909F908F907F900895D8
:1002D0006C01883E934034F00F2EF7EECF2EF3E002
:1002E000DF2EF02DEE24E394D194C194D108C60101
:1002F00075DFB82E52E011E0851310E02AE030E0FF
:10030000C601B9019BD28B83CB01B90197D28A83F5
:10031000C60164E670E092D2CB01B9018FD2A82E5B
:10032000898381E0B81609F4A0CF03E00B190330EC
:1003300008F0B6CF82E090E06C01C918D1087E2C9D
:100340006894992497F8812C33C01C151D0409F476
:1003500095CFA11015C0202F30E0E1E0F0E0EC0FC8
:10036000FD1FE20FF31F808181110AC042E050E0BF
:100370004C0F5D1F240F351FF901908191110FC0A3
:10038000F1E0BF1609F487CFE1E0F0E0EC0FFD1FCC
:10039000E00FF11DE081F0E0E25EFF4F8491612FFC
:1003A000C0DE81E0800F1F5F0F5F833008F078CFE1
:1003B000EE2059F2112309F45ACF1C151D0421F720
:1003C00083E0B81609F3E1E0F0E0EC0FFD1FE00F69
:1003D000F11DE081F0E0E25EFF4FE491F2E0892D53
:1003E000BF1609F453CF8E2BDACF62D1882351F098
:1003F000813011F081E00895C19A81E090E0ABDE98
:1004000081E00895C19880E00895CF93DF93CDB740
:10041000DEB766970FB6F894DEBF0FBECDBFB99AB0
:10042000C198A89588E199E20FB6F894A89581BD86
:100430000FBE91BD6CE0CE010196FFD028E042E0F6
:1004400062E080E054DE7DDE2FEF80E792E0215015
:1004500080409040E1F700C0000004E610E013C0C7
:100460008FE19EE40197F1F700C00000CE010196F4
:1004700039D18B899C89B801CDD12D8941E08989F9
:100480009A89C2DEA895CE010196AFDF882341F399
:100490002FE788E391E0215080409040E1F700C0D1
:1004A0000000A895F0CFF894BB9A8FEB93E00197EA
:1004B000F1F700C00000BB989AEB9A95F1F700C0E5
:1004C00086B3E3E3F3E03197F1F700C000007894DE
:1004D00083FB882780F991E08927089598E00DC073
:1004E000BB9A20EA2A95F1F7BB982AE12A95F1F701
:1004F00000C078948695915069F0F89480FFF0CF11
:10050000BB9A20E12A95F1F7BB982AEA2A95F1F7E0
:1005100000C0EFCF089598E080E007C022E92A9557
:10052000F1F700C07894915071F0F8948695BB9AD9
:1005300020E12A95F1F7BB9828E12A95F1F7B39BC2
:10054000EDCF8068EBCF0895AEDF811101C0089533
:100550008CECC4DF81E0FBCF0F931F93CF93DF932D
:100560008C01A1DF811105C0DF91CF911F910F9107
:10057000089583E3B3DFE801085F1F4FCCDF899361
:10058000C017D107D9F781E0EFCFFC01680F791FC1
:1005900080E02CE80BC08695915029F080FFFBCFBE
:1005A00086958227F9CFE617F70721F091918927E1
:1005B00098E0F4CF0895EF92FF920F931F93CF939B
:1005C000DF937C01C1DF982F811108C0892FDF9153
:1005D000CF911F910F91FF90EF9008958EEB7EDFEA
:1005E000E7018701085F1F4F96DF8993C017D10786
:1005F000D9F768E070E0C701C8DFC82F8CDF91E051
:10060000C81721F390E0E2CF4EDF811101C00895B9
:100610009BDF88E463DF81E0FACFCF93DF93EC01C7
:1006200093DF8EE45BDF888159DF898157DF8A8120
:1006300055DFEADFDF91CF910895FF920F931F936B
:10064000CF93DF9300D01F92CDB7DEB78C01F62E8B
:10065000B2DFF8018281898383818A83FAE0FF1601
:10066000B9F08BE0F81689F0E9E0FE16A1F08FE70B
:100670008B83CE010196D1DF0F900F900F90DF9109
:10068000CF911F910F91FF9008958FE58B83F1CF4C
:100690008FE38B83EECF8FE18B83EBCF04DF811170
:1006A00001C008958CEC1ADF84E418DF81E0F9CFF3
:1006B000CF93DF93EC01F7DE811104C081E0DF917D
:1006C000CF910895CE01089647DF8885883211F0D2
:1006D00082E0F5CFCE016FDF882311F080E0EFCF0D
:1006E00083E0EDCFCF93DF93EC0165DF811103C091
:1006F000DF91CF910895D2DF8823D1F32C81822F0F
:1007000090E08095909580769927892B09F055C0C7
:100710002FE73FE482E1215030408040E1F700C004
:100720000000CE0148DF882309F469C01D8A898151
:1007300090E04881242F382F33230CF463C0359583
:100740002795359527953595279535952795398B97
:10075000288B80959095887F9927892B09F055C023
:1007600081E08C8B4195488388818F70282F30E001
:10077000C901880F991F82959295907F9827807F55
:100780009827821B930B880F991F880F991F820F40
:10079000931F880F991F880F991F880F991F9C011D
:1007A0009923ACF13595279535952795359527955E
:1007B000359527953B8B2A8B9BCF26FF0AC09FEB55
:1007C00027E239E0915020403040E1F700C00000BE
:1007D000A8CF25FF0AC08FEF96E924E08150904012
:1007E0002040E1F700C000009CCF3FE78BE492E09F
:1007F000315080409040E1F700C0000092CF81E08E
:100800008D8B76CF215F3F4F9ACF1C8AADCF215F72
:100810003F4FC8CFAA1BBB1B51E107C0AA1FBB1F7C
:10082000A617B70710F0A61BB70B881F991F5A957C
:10083000A9F780959095BC01CD01089597FB072EEF
:1008400016F4009406D077FD08D0E4DF07FC05D04D
:100850003EF4909581959F4F0895709561957F4FD7
:060860000895F894FFCF9B
:00000001FF
