:1000000013C01AC019C018C017C016C015C014C03C
:1000100013C012C011C010C00FC00EC00DC03F06EB
:100020005B4F666D7D077F6F11241FBECFE5D1E06A
:10003000DEBFCDBF12D01CC4E3CF69D1882351F0FD
:10004000813011F081E00895C19A81E090E0B5D24D
:1000500081E00895C19880E00895CF93DF93CDB7F4
:10006000DEB766970FB6F894DEBF0FBECDBFB99A64
:10007000C198A89588E199E20FB6F894A89581BD3A
:100080000FBE91BD6CE0CE01019606D128E042E0A2
:1000900062E080E05ED287D22FEF80E792E02150CD
:1000A00080409040E1F700C00000789404E610E042
:1000B00013C08FE19EE40197F1F700C00000CE016C
:1000C00001963FD18B899C89B801ABD32D8941E042
:1000D00089899A89B5D2A895CE010196AEDF882389
:1000E00041F32FE788E391E0215080409040E1F711
:1000F00000C00000A895F0CFF894BB9A8FEB93E076
:100100000197F1F700C00000BB989AEB9A95F1F7C0
:1001100000C086B3E3E3F3E03197F1F700C00000DD
:10012000789483FB882780F991E08927089598E0E7
:100130000DC0BB9A20EA2A95F1F7BB982AE12A95CF
:10014000F1F700C078948695915069F0F89480FF9B
:10015000F0CFBB9A20E12A95F1F7BB982AEA2A95BD
:10016000F1F700C0EFCF089598E080E007C022E9E2
:100170002A95F1F700C07894915071F0F894869523
:10018000BB9A20E12A95F1F7BB9828E12A95F1F76F
:10019000B39BEDCF8068EBCF0895AEDF811101C036
:1001A00008958CECC4DF81E0FBCF0F931F93CF93B6
:1001B000DF938C01A1DF811105C0DF91CF911F91E9
:1001C0000F91089583E3B3DFE801085F1F4FCCDF91
:1001D0008993C017D107D9F781E0EFCFFC01680FF1
:1001E000791F80E02CE80BC08695915029F080FFA4
:1001F000FBCF86958227F9CFE617F70721F091917B
:10020000892798E0F4CF0895EF92FF920F931F9300
:10021000CF93DF937C01C1DF982F811108C0892F14
:10022000DF91CF911F910F91FF90EF9008958EEB8A
:100230007EDFE7018701085F1F4F96DF8993C017B4
:10024000D107D9F768E070E0C701C8DFC82F8CDF9D
:1002500091E0C81721F390E0E2CF4EDF811101C099
:1002600008959BDF88E463DF8FE19EE40197F1F757
:1002700000C0000081E0F4CFCF93DF93EC018DDF6D
:100280008EE455DF888153DF898151DF8A814FDF1A
:10029000E4DFDF91CF910895FF920F931F93CF93E7
:1002A000DF9300D01F92CDB7DEB78C01F62EACDF06
:1002B000F8018281898383818A83FAE0FF16B9F08D
:1002C0008BE0F81689F0E9E0FE16A1F08FE78B834A
:1002D000CE010196D1DF0F900F900F90DF91CF915B
:1002E0001F910F91FF9008958FE58B83F1CF8FE3DE
:1002F0008B83EECF8FE18B83EBCFFEDE811101C0CC
:1003000008958CEC14DF84E412DF81E0F9CFCF9301
:10031000DF93EC01F1DE811104C081E0DF91CF9128
:100320000895CE01089641DF8885883211F082E079
:10033000F5CFCE0169DF882311F080E0EFCF83E0B5
:10034000EDCFCF93DF93EC015FDF811103C0DF912D
:10035000CF910895D2DF8823D1F32C81822F90E0B2
:100360008095909580769927892B09F055C02FE7C5
:100370003FE482E1215030408040E1F700C00000BE
:10038000CE0142DF882309F469C01D8A898190E08B
:100390004881242F382F33230CF463C035952795DB
:1003A000359527953595279535952795398B288B44
:1003B00080959095887F9927892B09F055C081E019
:1003C0008C8B4195488388818F70282F30E0C9013C
:1003D000880F991F82959295907F9827807F982704
:1003E000821B930B880F991F880F991F820F931FF1
:1003F000880F991F880F991F880F991F9C019923B7
:10040000ACF13595279535952795359527953595F3
:1004100027953B8B2A8B9BCF26FF0AC09FEB27E2B9
:1004200039E0915020403040E1F700C00000A8CFF3
:1004300025FF0AC08FEF96E924E0815090402040CC
:10044000E1F700C000009CCF3FE78BE492E0315021
:1004500080409040E1F700C0000092CF81E08D8B9A
:1004600076CF215F3F4F9ACF1C8AADCF215F3F4FA0
:10047000C8CFF894C09AC29A8DE08A95F1F700002F
:10048000C0988DE08A95F1F70000C298789408959D
:10049000F894C298C0988DE08A95F1F70000C29A4E
:1004A0008DE08A95F1F70000C09A78940895F89449
:1004B0002DE02A95F1F7000098E00DC0C0988695D0
:1004C0002DE02A95F1F70000C29A2DE02A95F1F768
:1004D0000000915049F0C2982DE02A95F1F70000F4
:1004E00080FFECCFC09AEBCFB898C298C09A8DE04D
:1004F0008A95F1F7000086B3C29A9DE09A95F1F7CC
:100500000000C2982DE02A95F1F70000B89A78947F
:10051000809581700895992384F021E08A309105B7
:1005200054F021E0EAE0F0E0BF018FD1CB012F5F72
:100530006A307105CCF7822F0895919581959109C4
:10054000ECCFCF93C82F95DF8C2FB1DFA1DFCF91F8
:10055000089597B3A1E0B0E0FD0102C0EE0FFF1FC8
:100560008A95E2F702C0AA0FBB1F6A95E2F7EA2B51
:100570009E2B97BB88B3E095E823E8BB822F806869
:10058000842BDFDF0895CF93DF93C82FD62F80E42D
:10059000D8DF6FDF8D2F806C8ADF8C2F88DF78DFCC
:1005A000DF91CF91089562E080E4EDDF61E080E4C7
:1005B000EADF60E080E4E7DF0895BF92CF92DF9248
:1005C000EF92FF920F931F93CF93DF938C01EC0177
:1005D000083E83E0180714F0C7EED3E0112354F06F
:1005E0000F2EF3E0DF2EF02D0F2EFAE0EF2EF12C80
:1005F000F02D17C0D195C195D10960E080E4C3DF2B
:10060000EFCFDA94CE01B70120D1B62EC72E825E8D
:100610009F4FFC0184916D2DB6DFCB2DDC2DDD20AD
:1006200029F0112374F7E1E0DE12EBCFDF91CF91D7
:100630001F910F91FF90EF90DF90CF90BF900895A2
:100640007F928F929F92AF92BF92CF92DF92EF9262
:10065000FF920F931F93CF93DF9300D01F92CDB7DC
:10066000DEB7F62E942EE22E99230CF44DC021E035
:10067000E11001C020E06C01883E934034F00F2E61
:10068000F7EECF2EF3E0DF2EF02DE11008C0C6010B
:1006900042DFB82E52E085134CC010E04BC0E22E72
:1006A0003FC00B2D63C0682D80E46DDF81E0800FBB
:1006B0001E2D96C0E3E0BE12A2C0E11081C0A110C1
:1006C0007FC065C0882DE110AAC0892DA8C0872DE4
:1006D000023009F080C074C0EF2DF0E0E25EFF4F01
:1006E0008491612F50DF0F900F900F90DF91CF9189
:1006F0001F910F91FF90EF90DF90CF90BF90AF9040
:100700009F908F907F9008956C01883E934034F0C5
:100710000F2EF7EECF2EF3E0DF2EF02DEE24E39434
:10072000D194C194D108C601F6DEB82E52E011E092
:10073000851310E02AE030E0C601B90186D08B8332
:10074000CB01B90182D08A83C60164E670E07DD016
:10075000CB01B9017AD0A82E898381E0B81609F4BB
:10076000A0CF03E00B19033008F0B6CF82E090E091
:100770006C01C918D1087E2C6894992497F8812CB3
:1007800033C01C151D0409F495CFA11015C0202FEE
:1007900030E0E1E0F0E0EC0FFD1FE20FF31F80819D
:1007A00081110AC042E050E04C0F5D1F240F351F3D
:1007B000F901908191110FC0F1E0BF1609F487CFC4
:1007C000E1E0F0E0EC0FFD1FE00FF11DE081F0E053
:1007D000E25EFF4F8491612FD6DE81E0800F1F5FC4
:1007E0000F5F833008F078CFEE2059F2112309F41F
:1007F0005ACF1C151D0421F783E0B81609F3E1E078
:10080000F0E0EC0FFD1FE00FF11DE081F0E0E25E93
:10081000FF4FE491F2E0892DBF1609F453CF8E2BE0
:10082000DACFAA1BBB1B51E107C0AA1FBB1FA6172B
:10083000B70710F0A61BB70B881F991F5A95A9F789
:1008400080959095BC01CD01089597FB072E16F475
:10085000009406D077FD08D0E4DF07FC05D03EF415
:10086000909581959F4F0895709561957F4F08955C
:04087000F894FFCF2A
:00000001FF
